S00C0000636F64652E737265637D
S11300000C942A000C9434000C9434000C943400A6
S11300100C9434000C9434000C9434000C9434008C
S11300200C9434000C9434000C9434000C9434007C
S11300300C9434000C9434000C9434000C9434006C
S11300400C9434000C9434000C9434000C9434005C
S11300500C94340011241FBECFE5D8E0DEBFCDBF21
S11300600E9442000C9466000C940000806287B9E0
S113007083E08A95F1F70000369A349BFECF349AD8
S113008085B108951ABA1BBA17BA18BA83E084BBAB
S113009015BA80E881BB12BA82B5877F82BD82E639
S11300A085BD14BC13BC80E287B981E886B910BE53
S11300B013BC80E00E94360083BDB09902C0A898AA
S11300C0A99AB199F6CFA898A998F3CFF894FFCF3D
S9030000FC
